{
    "contractName": "MedicalRecord",
    "abi": [
        {
            "inputs": [
                {
                    "internalType": "uint256",
                    "name": "id",
                    "type": "uint256"
                },
                {
                    "internalType": "string",
                    "name": "dataHash",
                    "type": "string"
                }
            ],
            "name": "addRecord",
            "outputs": [],
            "stateMutability": "nonpayable",
            "type": "function"
        },
        {
            "inputs": [
                {
                    "internalType": "uint256",
                    "name": "id",
                    "type": "uint256"
                }
            ],
            "name": "deleteRecord",
            "outputs": [],
            "stateMutability": "nonpayable",
            "type": "function"
        },
        {
            "inputs": [
                {
                    "internalType": "uint256",
                    "name": "id",
                    "type": "uint256"
                }
            ],
            "name": "getRecord",
            "outputs": [
                {
                    "internalType": "uint256",
                    "name": "",
                    "type": "uint256"
                },
                {
                    "internalType": "string",
                    "name": "",
                    "type": "string"
                },
                {
                    "internalType": "uint256",
                    "name": "",
                    "type": "uint256"
                },
                {
                    "internalType": "bool",
                    "name": "",
                    "type": "bool"
                },
                {
                    "internalType": "address",
                    "name": "",
                    "type": "address"
                }
            ],
            "stateMutability": "view",
            "type": "function"
        },
        {
            "inputs": [
                {
                    "internalType": "address",
                    "name": "owner",
                    "type": "address"
                }
            ],
            "name": "getRecordsByOwner",
            "outputs": [
                {
                    "internalType": "uint256[]",
                    "name": "",
                    "type": "uint256[]"
                }
            ],
            "stateMutability": "view",
            "type": "function"
        },
        {
            "inputs": [
                {
                    "internalType": "address",
                    "name": "",
                    "type": "address"
                },
                {
                    "internalType": "uint256",
                    "name": "",
                    "type": "uint256"
                }
            ],
            "name": "ownerToIds",
            "outputs": [
                {
                    "internalType": "uint256",
                    "name": "",
                    "type": "uint256"
                }
            ],
            "stateMutability": "view",
            "type": "function"
        },
        {
            "inputs": [
                {
                    "internalType": "uint256",
                    "name": "",
                    "type": "uint256"
                }
            ],
            "name": "records",
            "outputs": [
                {
                    "internalType": "uint256",
                    "name": "id",
                    "type": "uint256"
                },
                {
                    "internalType": "string",
                    "name": "dataHash",
                    "type": "string"
                },
                {
                    "internalType": "uint256",
                    "name": "timestamp",
                    "type": "uint256"
                },
                {
                    "internalType": "bool",
                    "name": "deleted",
                    "type": "bool"
                },
                {
                    "internalType": "address",
                    "name": "owner",
                    "type": "address"
                }
            ],
            "stateMutability": "view",
            "type": "function"
        },
        {
            "inputs": [
                {
                    "internalType": "uint256",
                    "name": "id",
                    "type": "uint256"
                },
                {
                    "internalType": "string",
                    "name": "newDataHash",
                    "type": "string"
                }
            ],
            "name": "updateRecord",
            "outputs": [],
            "stateMutability": "nonpayable",
            "type": "function"
        }
    ],
    "bytecode": "6080806040523460155761097c908161001a8239f35b5f80fdfe6080806040526004361015610012575f80fd5b5f3560e01c90816303e9e6091461066a57508063061f9811146105c95780631c6314661461041857806334461067146103bc5780634131d0e314610179578063552d7105146100c55763feb3d3d614610069575f80fd5b346100c15760403660031901126100c1576100826108c8565b6001600160a01b03165f908152600160205260409020805460243591908210156100c1576020916100b2916108de565b90549060031b1c604051908152f35b5f80fd5b346100c15760203660031901126100c1576001600160a01b036100e66108c8565b165f52600160205260405f20604051806020835491828152019081935f5260205f20905f5b8181106101635750505081610121910382610751565b604051918291602083019060208452518091526040830191905f5b81811061014a575050500390f35b825184528594506020938401939092019160010161013c565b825484526020909301926001928301920161010b565b346100c15761018736610773565b90805f525f60205260ff600360405f20015416610382576040516101aa81610735565b818152602081019283526040810142815260608201915f83526080810191338352845f525f60205260405f209151825560018201955195865167ffffffffffffffff81116102b8576101fc82546107f0565b601f811161033d575b506020601f82116001146102d75781906003969798995f926102cc575b50508160011b915f1990871b1c19161790555b51600282015592519201805491516001600160a81b031990921660ff931515939093169290921760089190911b610100600160a81b0316179055335f9081526001602052604090208054680100000000000000008110156102b85761029f916001820181556108de565b819291549060031b91821b915f19901b19161790555f80f35b634e487b7160e01b5f52604160045260245ffd5b015190508980610222565b601f19821698835f52815f20995f5b81811061032557509160039798999a9184600195941061030e575b505050811b019055610235565b01515f1983891b60f8161c19169055898080610301565b838301518c556001909b019a602093840193016102e6565b825f5260205f20601f830160051c81019160208410610378575b601f0160051c01905b81811061036d5750610205565b5f8155600101610360565b9091508190610357565b60405162461bcd60e51b8152602060048201526012602482015271149958dbdc99081dd85cc819195b195d195960721b6044820152606490fd5b346100c15760203660031901126100c1576004355f525f60205260405f2080546104146103eb60018401610828565b91600360028501549401549060405194859460ff60018060a01b038560081c16941692866106e5565b0390f35b346100c15761042636610773565b90805f525f60205260ff600360405f2001541661058457805f525f60205261046160018060a01b03600360405f20015460081c163314610907565b805f525f602052600160405f2001825167ffffffffffffffff81116102b85761048a82546107f0565b601f811161053f575b506020601f82116001146104de57819293945f926104d3575b50508160011b915f199060031b1c19161790555b5f525f60205242600260405f2001555f80f35b0151905084806104ac565b601f19821690835f52805f20915f5b8181106105275750958360019596971061050f575b505050811b0190556104c0565b01515f1960f88460031b161c19169055848080610502565b9192602060018192868b0151815501940192016104ed565b825f5260205f20601f830160051c8101916020841061057a575b601f0160051c01905b81811061056f5750610493565b5f8155600101610562565b9091508190610559565b60405162461bcd60e51b815260206004820152601c60248201527f43616e6e6f74207570646174652064656c65746564207265636f7264000000006044820152606490fd5b346100c15760203660031901126100c157600435805f525f60205260ff600360405f2001541661063357805f525f60205261061760018060a01b03600360405f20015460081c163314610907565b5f525f602052600360405f2001600160ff198254161790555f80f35b60405162461bcd60e51b815260206004820152600f60248201526e105b1c9958591e4819195b195d1959608a1b6044820152606490fd5b346100c15760203660031901126100c1576004355f525f60205260405f2061069182610735565b805482526104146106a460018301610828565b928360208201526003600284015493846040840152015460ff811615159081606084015260018060a01b039060081c16918260808201525193604051958695865b9390602060809497969360c092875260a08288015280519182918260a08a0152018388015e5f828288010152601f80199101168501019560408501521515606084015260018060a01b0316910152565b60a0810190811067ffffffffffffffff8211176102b857604052565b90601f8019910116810190811067ffffffffffffffff8211176102b857604052565b9060406003198301126100c1576004359160243567ffffffffffffffff81116100c157816023820112156100c15780600401359067ffffffffffffffff82116102b857604051926107ce601f8401601f191660200185610751565b828452602483830101116100c157815f92602460209301838601378301015290565b90600182811c9216801561081e575b602083101461080a57565b634e487b7160e01b5f52602260045260245ffd5b91607f16916107ff565b9060405191825f82549261083b846107f0565b80845293600181169081156108a65750600114610862575b5061086092500383610751565b565b90505f9291925260205f20905f915b81831061088a575050906020610860928201015f610853565b6020919350806001915483858901015201910190918492610871565b90506020925061086094915060ff191682840152151560051b8201015f610853565b600435906001600160a01b03821682036100c157565b80548210156108f3575f5260205f2001905f90565b634e487b7160e01b5f52603260045260245ffd5b1561090e57565b60405162461bcd60e51b815260206004820152601060248201526f2737ba103932b1b7b9321037bbb732b960811b6044820152606490fdfea2646970667358221220ef3e9f337d59f496352d8400c68c6cf6cea7f48b72097755c2eda9311b1b51dd64736f6c634300081e0033",
    "sourcePath": "d:/Studia/2 stopień/I semestr/Programowanie Defensywne/Projekt/Programowanie-Defensywne/VetClinic/API/vetclinic_api/contracts/MedicalRecord.sol",
    "compiler": {
        "name": "solc",
        "version": "0.8.30+commit.73712a01"
    },
    "functionHashes": {
        "addRecord(uint256,string)": "4131d0e3",
        "deleteRecord(uint256)": "061f9811",
        "getRecord(uint256)": "03e9e609",
        "getRecordsByOwner(address)": "552d7105",
        "ownerToIds(address,uint256)": "feb3d3d6",
        "records(uint256)": "34461067",
        "updateRecord(uint256,string)": "1c631466"
    },
    "gasEstimates": {
        "creation": {
            "codeDepositCost": "485600",
            "executionCost": "525",
            "totalCost": "486125"
        },
        "external": {
            "addRecord(uint256,string)": "infinite",
            "deleteRecord(uint256)": "28876",
            "getRecord(uint256)": "infinite",
            "getRecordsByOwner(address)": "infinite",
            "ownerToIds(address,uint256)": "6906",
            "records(uint256)": "infinite",
            "updateRecord(uint256,string)": "infinite"
        }
    }
}